:100000000C94F9000C9421010C9421010C94210111
:100010000C9421010C9421010C9421010C942101D8
:100020000C9421010C9421010C9421010C94620F79
:100030000C9421010C9421010C9421010C942101B8
:100040000C94180F0C9421010C941E100C94210197
:100050000C9421010C9421010C9421010C94210198
:100060000C9421010C9421014E414E494E495459A2
:10007000494E46CDCCCC3D0AD7233C17B7D1387773
:10008000CC2B329595E6241FB14F0A000020410089
:1000900000C84200401C4620BCBE4CCA1B0E5AAED3
:1000A000C59D7400407A10F35A00A0724E180900E2
:1000B00010A5D4E80000E87648170000E40B5402CD
:1000C0000000CA9A3B000000E1F505000080969808
:1000D00000000040420F000000A086010000001058
:1000E0002700000000E8030000000064000000009A
:1000F000000A00000000000100000000002C76D87B
:1001000088DC674F0823DFC1DFAE59E1B1B796E560
:10011000E3E453C63AE651997696E8E6C28426EBC4
:10012000898C9B62ED407C6FFCEFBC9C9F40F2BAD7
:10013000A56FA5F490055A2AF75C936B6CF9676D6F
:10014000C11BFCE0E40D47FEF520E6B500D0ED90C4
:100150002E0300943577050080841E080000204E91
:100160000A000000C80C333333330F986E1283112A
:1001700041EF8D2114893BE65516CFFEE6DB18D101
:10018000844B381BF77C1D901DA4BBE424203284D3
:10019000725E228100C9F124ECA1E53D2700000038
:1001A0000800020100000304070000000000000036
:1001B0000000000000250028002B000000000024A3
:1001C0000027002A000404040404040404020202B8
:1001D0000202020303030303030102040810204088
:1001E00080010204081020010204081020004410BD
:1001F0003A1711241FBECFEFD8E0DEBFCDBF12E00B
:10020000A0E0B1E0E0E3F2E402C005900D92AC3E64
:10021000B107D9F724E0ACEEB2E001C01D92A234E0
:10022000B207E1F710E0C8EFD0E004C02197FE016B
:100230000E94E61EC73FD107C9F70E9411110C9416
:100240000B210C94000090E0FC01E752FE4F24913A
:100250008B539E4FFC018491882399F090E0880F86
:10026000991FFC01E554FE4FA591B491FC01EF5498
:10027000FE4F859194918FB7F894EC91E22BEC931B
:100280008FBF08958F929F92AF92BF92FF920F936C
:100290001F93CF93DF93F090CF032BE02F1508F43B
:1002A00051C02091D10308E512E0021B110927FD7E
:1002B0001395000F111F000F111F2091D003C8E8E4
:1002C000D0E0C21BD10927FDD395CC0FDD1FCC0F89
:1002D000DD1F4E010D2E000CAA08BB08DC01853B7A
:1002E000910514F0A4EBB0E09801012E000C440B32
:1002F000550B281939094A095B090E94AB1C24EBEC
:1003000030E040E050E00E94811C820E931EA41E4B
:10031000B51E8C169D062CF0E801801691060CF493
:10032000E4012297CC0FDD1F2FB7F8948F2D90E0BA
:10033000FC01EE0FFF1FE80FF91FE655FC4FD283BB
:10034000C1832FBFDF91CF911F910F91FF90BF907D
:10035000AF909F908F90089590E0FC01E356FE4F80
:100360002491FC01E752FE4F3491FC01EB53FE4F08
:10037000E491EE23C9F0222339F0233001F1A8F4EF
:10038000213019F1223029F1F0E0EE0FFF1FEF5478
:10039000FE4FA591B4918FB7F894EC91611126C0EE
:1003A00030953E233C938FBF08952730A9F0283025
:1003B000C9F0243049F7809180008F7D03C080917F
:1003C00080008F7780938000DFCF84B58F7784BDE6
:1003D000DBCF84B58F7DFBCF8091B0008F7780938A
:1003E000B000D2CF8091B0008F7DF9CF3E2BDACF15
:1003F0003FB7F8948091F3029091F402A091F50236
:10040000B091F60226B5A89B05C02F3F19F00196C2
:10041000A11DB11D3FBFBA2FA92F982F8827BC015E
:10042000CD01620F711D811D911D42E0660F771F86
:10043000881F991F4A95D1F708958F929F92AF9286
:10044000BF92CF92DF92EF92FF920E94F8014B0190
:100450005C0180EBC82E84E0D82EE12CF12C0E94A8
:10046000F801681979098A099B09683E734081057A
:100470009105A8F321E0C21AD108E108F10888EE3D
:10048000880E83E0981EA11CB11CC114D104E104A4
:10049000F10429F7FF90EF90DF90CF90BF90AF90DD
:1004A0009F908F9008950F93CF93DF93EC01862F49
:1004B000688349832A830B830E94230160E088813B
:1004C0000E94AC0189810E94230160E089810E9421
:1004D000AC018A810E94230160E08A810E94AC0104
:1004E0008B810E94230160E08B81DF91CF910F917E
:1004F0000C94AC019091C00095FFFCCF8093C60096
:1005000008951F93CF93DF93EC0110E0812F90E0CB
:100510002C813D818217930720F4A881B98110971F
:10052000B9F41092EC02ACEEB2E04C914423B1F07D
:100530008217930720F4E881F981309761F41092D3
:10054000EC02ECEEF2E080810E947A021F5FDECFC7
:10055000A80FB91FEACFE80FF91FF5CFDF91CF91B0
:100560001F910895CF93DF93682F8091A8039091F6
:10057000A903892B89F0C091A403D091A503062E6D
:10058000000C770BCE010E94DF20009729F08C1B16
:100590009D0BDF91CF9108958FEF9FEFFACFCF930F
:1005A000DF932091A8033091A903232B89F0FC014C
:1005B000C091A403D091A50360817181CE010E94F6
:1005C000F120009729F08C1B9D0BDF91CF910895AE
:1005D0008FEF9FEFFACF4F925F926F927F928F9241
:1005E0009F92AF92BF92CF92DF92EF92FF920F93C2
:1005F0001F93CF93DF93CDB7DEB72A970FB6F8944A
:10060000DEBF0FBECDBF9A8789876A017B01FC01DF
:1006100087A590A9A1A9B2A98C0D9D1DAE1DBF1DD6
:1006200084879587A687B78780849184A284B384C2
:10063000A5019401C501B4010E941C1D6D837E8338
:100640008F8398870E94931E9B01AC0160E074E247
:1006500084E799E40E94881D69837A838B839C8355
:10066000A985BA855B966D937D938D939C935E97D8
:1006700014964D905D906D907C901797A301920118
:1006800060E074E284E799E40E94881DE985FA85B8
:10069000618B728B838B948BA3019201C301B20196
:1006A0000E94AA1B2D813E814F8158850E94881D82
:1006B0002B013C0120E030E0A9010E94881E20E0CF
:1006C00030E040E05FE387FD5FC1C301B2010E94FB
:1006D0001C1D0E94FA1DA985BA8555966D937D93C0
:1006E0008D939C935897F7FE54C1F094E094D09466
:1006F000C094C11CD11CE11CF11C2FEF3FEF5A9696
:100700003C932E935997660F771F881F991F6C157E
:100710007D058E059F0564F0F594E794D794C79402
:10072000A985BA855596CD92DD92ED92FC925897A7
:1007300089819A81AB81BC81E985FA85878F90A3F5
:10074000A1A3B2A325EA34ED48E653E5C501B401FF
:100750000E94881DA985BA8597966D937D938D9388
:100760009C939A9781E050968C9303E010E0E98582
:10077000FA8547A550A961A972A984859585A685A2
:10078000B785481759076A077B0709F4E6C08089CF
:10079000882361F00E94F801A985BA8593966D932C
:1007A0007D938D939C93969750961C920E94F8018E
:1007B0002B013C01E985FA8583A194A1A5A1B6A1ED
:1007C00073016201C81AD90AEA0AFB0A678D70A18F
:1007D00081A192A10E94011EC616D706E806F9065D
:1007E00030F2E985FA8584859585A685B78547A584
:1007F00050A961A972A9841B950BA60BB70BB7FF73
:1008000007C0B095A095909581959F4FAF4FBF4F72
:10081000E985FA85458956896789708D4817590792
:100820006A077B0749F487A190A5A1A5B2A5B05896
:1008300087A390A7A1A7B2A7A985BA85D3968D91C2
:100840009C91D49759962D913C915A97821B930B6A
:1008500097FDA6C0D4969C938E93D397A985BA850D
:10086000D3968D919C91D497049724F0D4961C92A2
:100870001E92D397E985FA8583A994A981309105C1
:1008800009F4BDC00CF091C0892B09F4A3C0A9855F
:10089000BA855996CD90DC905A970D2C000CEE0835
:1008A000FF089F968D919D910D90BC91A02DC80E33
:1008B000D91EEA1EFB1EE985FA85C7A6D0AAE1AAC1
:1008C000F2AA878C90A0A1A0B2A083A694A6A5A608
:1008D000B6A627A130A541A552A5C501B4010E9425
:1008E000AA1BA50194010E94AA1B9B01AC0160E018
:1008F00070E080E89FE30E941B1DA50194010E9407
:10090000AA1BE985FA85678F70A381A392A38188CA
:100910009288A388B488A50194010E94441B87FF94
:1009200008C0A985BA855F968D929D92AD92BC92C2
:100930009297E985FA8543A254A265A276A284859E
:100940009585A685B785C816D906EA06FB0609F07F
:100950000ECF13A614A615A616A62A960FB6F894BF
:10096000DEBF0FBECDBFDF91CF911F910F91FF90E2
:10097000EF90DF90CF90BF90AF909F908F907F903F
:100980006F905F904F900895C301B2010E941B1DAC
:10099000A0CE21E030E0E985FA85328F218FB3CEF9
:1009A000E985FA8514AB03AB59CF8230910509F480
:1009B00040C0039709F06BCF61E0A985BA858C919F
:1009C0000E94AC0160E0E985FA8581810E94AC015A
:1009D00060E00DC060E0A985BA858C910E94AC01F1
:1009E00060E0E985FA8581810E94AC0161E0A9851A
:1009F000BA8512968C910E94AC0161E014C060E04F
:100A0000A985BA858C910E94AC0161E0E985FA85DF
:100A100081810E94AC0161E0A985BA8512968C9112
:100A20000E94AC0160E0E985FA8583810E94AC01F7
:100A30002ECF61E0A985BA858C910E94AC0161E05E
:100A4000E985FA8581810E94AC0160E0E5CF4F9293
:100A50005F926F927F928F929F92AF92BF92CF924E
:100A6000DF92EF92FF920F931F93CF93DF9300D00B
:100A700000D000D0CDB7DEB72B013C0149015A01AF
:100A8000FE82ED8260910A0170910B01072E000C2D
:100A9000880B990B0E944B1B9B01AC01C501B40153
:100AA0000E941B1D4B015C016091A0037091A1038A
:100AB000072E000C880B990B0E944B1B9B01AC016D
:100AC000C301B2010E941B1D6B017C01A5019401B1
:100AD000C501B4010E94AA1B4B015C01A70196014C
:100AE000C701B6010E94AA1BA50194010E941C1D0A
:100AF0000E94931E20919C0330919D0340919E0380
:100B000050919F0329833A834B835C830E94881D05
:100B10006B017C0120E030E0A9010E94881E20E0EA
:100B200030E040E05FE387FD5BC0C701B6010E9493
:100B30001C1D0E94FA1DF8016083718382839383D8
:100B40006091A2037091A303072E000C880B990BF0
:100B50000E944B1B9B01AC01C301B2010E941B1DF3
:100B60009B01AC010E94AA1BA50194010E941C1DBF
:100B70000E94931E29813A814B815C810E94881DCD
:100B80006B017C0120E030E0A9010E94881E20E07A
:100B900030E040E05FE387FD28C0C701B6010E9456
:100BA0001C1D0E94FA1DED81FE816083718382838A
:100BB000938326960FB6F894DEBF0FBECDBFDF91AC
:100BC000CF911F910F91FF90EF90DF90CF90BF904A
:100BD000AF909F908F907F906F905F904F9008950F
:100BE000C701B6010E941B1DA4CFC701B6010E9418
:100BF0001B1DD7CF4F925F926F927F928F929F92E1
:100C0000AF92BF92CF92DF92EF92FF920F931F931A
:100C1000CF93DF93CDB7DEB76C970FB6F894DEBFF6
:100C20000FBECDBF6D8B7E8B8F8B988F298F3A8FA8
:100C30004B8F5C8F9E012B5F3F4F79018E010F5FC1
:100C40001F4F298D3A8D4B8D5C8D0E942705C980E1
:100C5000DA80EB80FC808091FB029091FC02A091F5
:100C6000FD02B091FE02C81AD90AEA0AFB0A26015F
:100C70003701F7FE07C04424552432014C185D08A3
:100C80006E087F084D815E816F8178858091F702C3
:100C90009091F802A091F902B091FA02481B590B09
:100CA0006A0B7B0B4A015B0177FF07C088249924FC
:100CB0005401841A950AA60AB70A809102019091FC
:100CC00003011C141D041E041F041CF4919581953E
:100CD00091092091000130910101141615061606A4
:100CE00017061CF431952195310919861A861B8641
:100CF0001C86C12CD12C760184149504A604B7045B
:100D00000CF091C0AC01990F660B770B4D875E8795
:100D10006F87788BB901330F880B990B698B7A8BAE
:100D20008B8B9C8B4D855E856F85788987E094E001
:100D30000E94EB02C80CD91CEA1CFB1CC414D5048D
:100D4000E604F70464F0C418D508E608F7084989F2
:100D50005A896B897C8982ED93E00E94EB02809135
:100D6000060190E08230910538F0880F991F880FB6
:100D7000991F05970197F1F789859A85AB85BC8501
:100D80000196A11DB11D89879A87AB87BC8748163C
:100D900059066A067B0631F689819A81AB81BC814E
:100DA0008093FB029093FC02A093FD02B093FE029D
:100DB0008D819E81AF81B8858093F7029093F80270
:100DC000A093F902B093FA028D899E89AF89B88DFC
:100DD0008093840390938503A0938603B093870345
:100DE000298D3A8D4B8D5C8D209388033093890338
:100DF00040938A0350938B036C960FB6F894DEBF32
:100E00000FBECDBFDF91CF911F910F91FF90EF905B
:100E1000DF90CF90BF90AF909F908F907F906F901A
:100E20005F904F900895A901330F660B770B4D87A4
:100E30005E876F87788B9C01990F440B550B298B2C
:100E40003A8B4B8B5C8B49855A856B857C85481525
:100E500059056A057B0509F49FCF4D855E856F8531
:100E6000788982ED93E00E94EB02C40CD51CE61C4D
:100E7000F71CC814D904EA04FB0464F0C818D908A4
:100E8000EA08FB0849895A896B897C8987E094E0E4
:100E90000E94EB028091060190E08230910538F0CB
:100EA000880F991F880F991F05970197F1F769859A
:100EB0007A858B859C856F5F7F4F8F4F9F4F6987AA
:100EC0007A878B879C87BFCFFC01808191810097B7
:100ED00011F00C945C1760E070E0CB010895FC0108
:100EE00080819181009711F00C94601760E070E0B0
:100EF000CB0108950F931F93CF93DF93EC0188816B
:100F00009981009759F02A813B812617370730F0E5
:100F100081E0DF91CF911F910F9108958B016F5F59
:100F20007F4F0E941120009759F0998388831B837B
:100F30000A832C813D81232B59F7FC011082E8CFD5
:100F400080E0E7CFCF93DF93EC0188819981009710
:100F500011F00E94881F198218821D821C821B8238
:100F60001A82DF91CF910895EF92FF920F931F9312
:100F7000CF93DF93EC017B018A01BA010E947A07CB
:100F800081110BC0CE010E94A207CE01DF91CF914B
:100F90001F910F91FF90EF9008951D830C83B7016F
:100FA000888199810E94EA20F0CFCF93DF93EC01F2
:100FB000FB018617970749F0608171816115710502
:100FC00041F0448155810E94B407CE01DF91CF9159
:100FD00008950E94A207F9CFFC01118210821382AA
:100FE000128215821482FB0101900020E9F73197EB
:100FF000AF01461B570B0C94B407CF92DF92EF92D0
:10100000FF920F931F93CF93DF937C016B018A01B3
:101010004617570720F48D2D6A01062F182F6AEB0B
:1010200072E0C7010E94EC07C091A803D091A90308
:10103000CC16DD0638F50C171D0708F4E801E09121
:10104000A403F091A503EC0FFD1F108110826091A5
:10105000A4037091A5036C0D7D1D61157105E1F070
:10106000FB0101900020E9F73197AF01461B570BB8
:10107000C7010E94B4078091A4039091A503C80FF3
:10108000D91F1883C701DF91CF911F910F91FF9056
:10109000EF90DF90CF900895C7010E94A207EBCF99
:1010A000FC0180819181009711F00C94881F0895B4
:1010B000CF92DF92EF92FF920F931F93CF93DF9324
:1010C000CDB7DEB7A0970FB6F894DEBF0FBECDBF89
:1010D0006B017C016AEB72E0CE014B960E94EC073B
:1010E0001E8A1D8A188E1F8A1A8E198EBE01655E91
:1010F0007F4FCE0145960E94D5078E010F5F1F4F8F
:1011000022E044E0C701B6010E943E177C01FC01C9
:1011100001900020E9F73197E81BF90B892BB9F50D
:10112000CE0145960E94A207BE016B5E7F4FCE01A5
:101130004B960E94D507CE0145960E9450081A8210
:1011400019821C821B821E821D82BE01655E7F4F3A
:10115000CE0101960E94D507CE0101960E94810220
:10116000CE0101960E945008CE014B960E94500875
:10117000A0960FB6F894DEBF0FBECDBFDF91CF9122
:101180001F910F91FF90EF90DF90CF9008953097CF
:1011900059F2098D1A8D0E0F1F1FB801CE01459609
:1011A0000E947A07882309F4BBCF2D893E89898D57
:1011B0009A8DB701820F931F0E94EA201A8F098F20
:1011C000B3CF4F925F926F927F928F929F92AF9226
:1011D000BF92CF92DF92EF92FF92CF93DF93CDB782
:1011E000DEB7A2970FB6F894DEBF0FBECDBFD82EE4
:1011F00088E50E94B2027C0189E50E94B202F7FCF8
:101200002AC02FEFE21AF20A97FD02C0AC010EC00D
:101210008AE50E94B20297FFF9CF83E50E94B202ED
:101220004091A8035091A90397FFF0CFB701CE01D9
:1012300001960E94FD07CE0101960E94640760930B
:101240009003709391038093920390939303CE0144
:1012500001960E94500889E50E94B2027C0197FD28
:1012600028C08AE50E94B202AFEFEA1AFA0A97FD97
:1012700002C0AC0109C083E50E94B2024091A803FC
:101280005091A90397FFF5CFB701CE0101960E94B7
:10129000FD07CE0101960E9464076093940370934A
:1012A00095038093960390939703CE0101960E9435
:1012B000500882E50E94B2027C0197FDABC180918B
:1012C000840390918503A0918603B09187038F8357
:1012D0009887A987BA878091880390918903A09104
:1012E0008A03B0918B038B879C87AD87BE878091E3
:1012F000900390919103A0919203B09193038F87F3
:10130000988BA98BBA8B8091940390919503A091AF
:101310009603B09197038B8B9C8BAD8BBE8B83E533
:101320000E94B202B7016F5F7F4FAC0197FF04C00C
:101330004091A8035091A903CE0101960E94FD0798
:10134000CE0101960E9464074B015C01CE0101961B
:101350000E94500820E030E0A901C501B4010E94BC
:10136000441B882309F4A4C12F85388949895A89E7
:101370006F81788589859A850E94441B81110DC0F3
:101380002B893C894D895E896B857C858D859E8501
:101390000E94441B882309F48BC120E030E0A9019E
:1013A000C501B4010E94441B881F8827881F8D1522
:1013B00009F42BC180E090E0A0E8BFEB8B8F9C8FFD
:1013C000AD8FBE8F2F81388549855A856F85788985
:1013D00089899A890E941B1D6F8B788F898F9A8FBC
:1013E0002B853C854D855E856B897C898D899E89A1
:1013F0000E941B1D6B017C012F89388D498D5A8DF0
:10140000CA01B9010E94AA1B2B013C01A701960148
:10141000C701B6010E94AA1B9B01AC01C301B20126
:101420000E941C1D0E94931E2B013C0120E030E015
:1014300040E05FE30E94AA1B6F8F78A389A39AA361
:10144000A5019401C501B4010E94AA1B4B015C01D6
:101450002F8D38A149A15AA1CA01B9010E94AA1B26
:101460009B01AC01C501B4010E941B1D0E94931E8B
:101470009B01AC016B8D7C8D8D8D9E8D0E94AA1B76
:101480004B015C01C701B6019058A30192010E9473
:10149000881DA50194010E94AA1B6B017C012F8568
:1014A000388949895A896F81788589859A850E940A
:1014B0001C1D20E030E040E05FE30E94AA1B9B017E
:1014C000AC01C701B6010E941C1D2F8138854985DA
:1014D0005A850E941B1D6B017C01A30192016F893B
:1014E000788D898D9A8D0E94881DA50194010E9496
:1014F000AA1B4B015C012B893C894D895E896B8558
:101500007C858D859E850E941C1D20E030E040E09A
:101510005FE30E94AA1B9B01AC01C501B4010E94BC
:101520001C1D2B853C854D855E850E941B1D4B0136
:101530005C0164E171E0CE0101960E94EC07CE01EE
:1015400001960E948102CE0101960E94500860918E
:1015500090037091910380919203909193030E9464
:1015600058086AE171E0CE0101960E94EC07CE01B5
:1015700001960E948102CE0101960E94500860915E
:1015800094037091950380919603909197030E9424
:1015900058086CE171E0CE0101960E94EC07CE0183
:1015A00001960E948102CE0101960E945008C70157
:1015B000B6010E9458086EE171E0CE0101960E94CA
:1015C000EC07CE0101960E948102CE0101960E9495
:1015D0005008C501B4010E9458088AE00E947A02AE
:1015E000A2960FB6F894DEBF0FBECDBFDF91CF91AC
:1015F000FF90EF90DF90CF90BF90AF909F908F9033
:101600007F906F905F904F90089580E090E0A0E809
:10161000BFE3D4CE89E40E94B2027C018AE40E9436
:10162000B202F7FC41C0AFEFEA1AFA0A97FD02C016
:10163000AC0109C083E50E94B2024091A803509119
:10164000A90397FFF5CFB701CE0101960E94FD07D0
:10165000CE0101960E9464076B017C01CE010196C8
:101660000E9450088AE40E94B2025C0197FD26C0E5
:1016700083E50E94B202B5016F5F7F4FAC0197FF17
:1016800004C04091A8035091A903CE0101960E9485
:10169000FD07CE0101960E9464074B015C01CE015B
:1016A00001960E94500845CFC12CD12C7601DACF8B
:1016B000812C912C5401750164013BCF812C912C1C
:1016C000540137CF0C94731CFF920F931F93CF9349
:1016D000DF93EC018B01FB01F0800E946B1CF8167C
:1016E00021F06F2DCE010E94731CF801F18021962C
:1016F000CE010E946B1CF81621F06F2DCE010E94C6
:10170000731CC801DF91CF911F910F91FF90089535
:101710006DE090E080E00E94620B6EE081E090E07E
:101720000E94620B6091060182E090E00E94620BD1
:101730006091090183E090E00E94620B60910701D3
:1017400086E090E00E94620B6091080187E090E0E3
:101750000E94620B64E071E088E090E00E94640BFC
:101760006CE071E08AE090E00E94640B6AE071E056
:101770008CE090E00E94640B62E071E080E190E018
:101780000E94640B60E071E082E190E00C94640BD5
:10179000CF92DF92EF92FF920F931F93CF93DF933D
:1017A000CDB7DEB72C970FB6F894DEBF0FBECDBF16
:1017B00060E271E0CE0101960E94EC07CE01019635
:1017C0000E94CF028C01CE0101960E94500817FDA5
:1017D00041C00091A8031091A90360E271E0CE011D
:1017E00001960E94EC07CE0101960E94CF02BC0137
:1017F0006C5F7F4FA801CE0107960E94FD07CE01C6
:1018000007960E946F07162FCE0107960E94500878
:10181000CE0101960E94500860E271E0CE0101966F
:101820000E94EC07CE0101960E948102CE01019632
:101830000E945008612F70E090E080E00E94491BF8
:101840000E9458088AE00E947A02109306010E94C2
:10185000880BAAC265E271E0CE0101960E94EC07F6
:10186000CE0101960E94CF028C01CE0101960E940A
:10187000500817FD3FC00091A8031091A90365E22D
:1018800071E0CE0101960E94EC07CE0101960E9404
:10189000CF02BC016C5F7F4FA801CE0107960E946A
:1018A000FD07CE0107960E946F07162FCE010796FF
:1018B0000E945008CE0101960E94500865E271E036
:1018C000CE0101960E94EC07CE0101960E94810292
:1018D000CE0101960E945008612F70E090E080E0F8
:1018E0000E94491B0E9458088AE00E947A021093C5
:1018F0000901ADCF6AE271E0CE0101960E94EC07CA
:10190000CE0101960E94CF028C01CE0101960E9469
:10191000500817FD44C00091A8031091A9036AE282
:1019200071E0CE0101960E94EC07CE0101960E9463
:10193000CF02BC016C5F7F4FA801CE0107960E94C9
:10194000FD07CE0107960E946F07162FCE0107965E
:101950000E945008CE0101960E9450086FE271E08B
:10196000153B08F012C26AE271E0CE0101960E94B6
:10197000EC07CE0101960E948102CE0101960E94E1
:101980005008612F70E090E080E00E94491B0E94A7
:1019900058088AE00E947A021093070158CF6DE33D
:1019A00071E0CE0101960E94EC07CE0101960E94E3
:1019B000CF028C01CE0101960E94500817FD44C051
:1019C0000091A8031091A9036DE371E0CE01019687
:1019D0000E94EC07CE0101960E94CF02BC016C5F11
:1019E0007F4FA801CE0107960E94FD07CE01079602
:1019F0000E946F07162FCE0107960E945008CE0155
:101A000001960E94500862E471E0153B08F0BDC1E8
:101A10006DE371E0CE0101960E94EC07CE010196C4
:101A20000E948102CE0101960E945008612F70E051
:101A300090E080E00E94491B0E9458088AE00E94C2
:101A40007A021093080103CF60E571E0CE010196A0
:101A50000E94EC07CE0101960E94CF028C01CE01BC
:101A600001960E94500817FD46C00091A8031091EE
:101A7000A90360E571E0CE0101960E94EC07CE015A
:101A800001960E94CF02BC016C5F7F4FA801CE017E
:101A900007960E94FD07CE0107960E946F076B0113
:101AA000CE0107960E945008CE0101960E94500870
:101AB00065E571E0D7FC69C160E571E0CE01019692
:101AC0000E94EC07CE0101960E948102CE01019690
:101AD0000E945008B6010D2C000C880B990B0E9437
:101AE0004B1B0E9458088AE00E947A02D09205019E
:101AF000C0920401ACCE63E671E0CE0101960E9473
:101B0000EC07CE0101960E94CF028C01CE01019616
:101B10000E94500817FD46C00091A8031091A90328
:101B200063E671E0CE0101960E94EC07CE010196BA
:101B30000E94CF02BC016C5F7F4FA801CE010796C7
:101B40000E94FD07CE0107960E946F076B01CE0130
:101B500007960E945008CE0101960E94500868E640
:101B600071E0D7FC12C163E671E0CE0101960E94DC
:101B7000EC07CE0101960E948102CE0101960E94DF
:101B80005008B6010D2C000C880B990B0E944B1BC2
:101B90000E9458088AE00E947A02D0920D01C092F9
:101BA0000C0155CE66E771E0CE0101960E94EC076C
:101BB000CE0101960E94CF028C01CE0101960E94B7
:101BC000500817FD46C00091A8031091A90366E7CD
:101BD00071E0CE0101960E94EC07CE0101960E94B1
:101BE000CF02BC016C5F7F4FA801CE0107960E9417
:101BF000FD07CE0107960E946F076B01CE01079685
:101C00000E945008CE0101960E9450086BE771E0D7
:101C1000D7FCBBC066E771E0CE0101960E94EC07DD
:101C2000CE0101960E948102CE0101960E945008C9
:101C3000B6010D2C000C880B990B0E944B1B0E94C7
:101C400058088AE00E947A02D0920B01C0920A01E1
:101C5000FECD69E871E0CE0101960E94EC07CE014D
:101C600001960E94CF028C01CE0101960E9450087D
:101C700017FD4DC00091A8031091A90369E871E018
:101C8000CE0101960E94EC07CE0101960E94CF0280
:101C9000BC016C5F7F4FA801CE0107960E94FD0733
:101CA000CE0107960E946F076B018B01CE0107964C
:101CB0000E945008CE0101960E9450088FEFC8166E
:101CC000D80631F06EE871E00130110509F05DC011
:101CD00069E871E0CE0101960E94EC07CE01019601
:101CE0000E948102CE0101960E945008B6010D2C7F
:101CF000000C880B990B0E944B1B0E9458088AE02D
:101D00000E947A02D0920301C0920201A0CD6CE938
:101D100071E0CE0101960E94EC07CE0101960E946F
:101D2000CF028C01CE0101960E94500817FD3CC0E5
:101D30000091A8031091A9036CE971E0CE0101960E
:101D40000E94EC07CE0101960E94CF02BC016C5F9D
:101D50007F4FA801CE0107960E94FD07CE0107968E
:101D60000E946F076B018B01CE0107960E945008FD
:101D7000CE0101960E9450088FEFC816D80619F1BF
:101D80000130110501F161EA71E0CE0101960E9476
:101D9000EC07CE0101960E948102CE0101960E94BD
:101DA00050088AE00E947A022C960FB6F894DEBFA3
:101DB0000FBECDBFDF91CF911F910F91FF90EF909C
:101DC000DF90CF9008956CE971E0CE0101960E94FA
:101DD000EC07CE0101960E948102CE0101960E947D
:101DE0005008B6010D2C000C880B990B0E944B1B60
:101DF0000E9458088AE00E947A02D0920101C092A3
:101E0000000125CD0F931F93CF93DF938C01EB013E
:101E10000E946B1C8883C80101960E946B1C8983F9
:101E2000CE01DF91CF911F910F9108950C946B1CFF
:101E30001F920F920FB60F9211242F933F938F93FF
:101E40009F93AF93BF938091EF029091F002A09186
:101E5000F102B091F2023091EE0223E0230F2D3710
:101E600058F50196A11DB11D2093EE028093EF025B
:101E70009093F002A093F102B093F2028091F302EA
:101E80009091F402A091F502B091F6020196A11D85
:101E9000B11D8093F3029093F402A093F502B093E6
:101EA000F602BF91AF919F918F913F912F910F902B
:101EB0000FBE0F901F90189526E8230F0296A11DC4
:101EC000B11DD2CF1F920F920FB60F9211242F93F4
:101ED0003F934F935F936F937F938F939F93AF93B2
:101EE000BF93CF93DF93EF93FF938091ED02C09167
:101EF000CE03D0E087FF24C01092850010928400AA
:101F00008091ED028F5F8093ED028091ED02082EAB
:101F1000000C990B8C179D0724F48091ED028C30F6
:101F2000C4F18091840090918500049680349C498E
:101F300008F47AC08091840090918500049676C060
:101F40008091ED02082E000C990B8C179D07C4F6AA
:101F5000E091ED028E2FEE0F990BFC01EE0FFF1FAB
:101F6000E80FF91FE655FC4F808186FFC9CFE0914D
:101F7000ED028E2FEE0F990BFC01EE0FFF1FE80F05
:101F8000F91FE655FC4F808160E08F730E94AC0121
:101F9000B7CF2091840030918500E091ED028E2F23
:101FA000EE0F990BFC01EE0FFF1FE80FF91FE6552E
:101FB000FC4F81819281820F931F909389008093BF
:101FC0008800E091ED028E2FEE0F990BFC01EE0FD1
:101FD000FF1FE80FF91FE655FC4F808186FF11C0F7
:101FE000E091ED028E2FEE0F990BFC01EE0FFF1F1B
:101FF000E80FF91FE655FC4F808161E08F730E9466
:10200000AC01FF91EF91DF91CF91BF91AF919F9183
:102010008F917F916F915F914F913F912F910F9091
:102020000FBE0F901F90189580E49CE99093890053
:10203000809388008FEF8093ED02E3CF1F920F9281
:102040000FB60F9211242F938F939F93EF93FF93CB
:102050009091C600E091800381E08E0F87FD80E0C3
:1020600020917F03281731F0F0E0E150FD4F90837D
:1020700080938003FF91EF919F918F912F910F900B
:102080000FBE0F901F901895CF93DF936AEB72E00D
:1020900084EA93E00E94EC07C0910C01D0910D01FD
:1020A000BE010D2E000C880B990B0E944B1B20E0EB
:1020B00030E040E05FE30E94AA1B0E94FA1D70938B
:1020C000A3036093A203662777276C1B7D0B072E63
:1020D000000C880B990B0E944B1B20E030E040E085
:1020E0005FE30E94AA1B0E94FA1D7093A1036093F4
:1020F000A0036091090170E090E080E00E944B1B1A
:1021000029EF3FE049E450E40E94AA1B20E030E0C0
:1021100040E05AE30E94AA1B60939C0370939D03C6
:1021200080939E0390939F031092070410920804DB
:102130001092090410920A04109236041092370487
:10214000109238041092390440E050E060E873E4E3
:1021500040930B0450930C0460930D0470930E0491
:1021600080E090E0A0E0B4E480930F04909310042A
:10217000A0931104B093120410923204109233040D
:10218000109234041092350410923B0410923A04D9
:102190001092D2031092D3031092D4031092D5035D
:1021A000109201041092020410920304109204048D
:1021B0004093D6035093D7036093D8037093D90309
:1021C0008093DA039093DB03A093DC03B093DD03E9
:1021D0001092FD031092FE031092FF031092000470
:1021E00010920604109205048091CE038C30A8F45E
:1021F00091E0980F9093CE038093CF0390E0FC0181
:10220000EE0FFF1FE80FF91FE655FC4F88EB9BE030
:1022100092838183DF91CF9108958FEF8093CF03D5
:10222000F9CFCF93DF93CDB7DEB76E970FB6F894A3
:10223000DEBF0FBECDBF789484B5826084BD84B507
:10224000816084BD85B5826085BD85B5816085BDB1
:1022500080916E00816080936E0010928100809169
:1022600081008260809381008091810081608093F1
:102270008100809180008160809380008091B10016
:1022800084608093B1008091B00081608093B00041
:1022900080917A00846080937A0080917A008260D5
:1022A00080937A0080917A00816080937A00809197
:1022B0007A00806880937A001092C1008091C000FB
:1022C00082608093C0001092C50080E18093C400BA
:1022D0008091C10080618093C1008091C1008860BD
:1022E0008093C1008091C10080688093C10080917B
:1022F000800380937F0390E080E00E94160F8D3072
:1023000009F082C181E090E00E94160F8E3009F042
:102310007BC16FEA71E0CE0101960E94EC07CE010D
:1023200001960E948102CE0101960E9450088AE027
:102330000E947A0282E090E00E94160F80930601CC
:1023400083E090E00E94160FF82E8093090186E04A
:1023500090E00E94160F8093070187E090E00E94B2
:10236000160F8093080164E071E088E090E00E941D
:10237000020F6CE071E08AE090E00E94020F6AE0D8
:1023800071E08CE090E00E94020F62E071E080E179
:1023900090E00E94020F60E071E082E190E00E9414
:1023A000020F00910C0110910D01B801012E000CDB
:1023B000880B990B0E944B1B20E030E040E05FE36C
:1023C0000E94AA1B0E94FA1D7093A3036093A203AC
:1023D00066277727601B710B072E000C880B990B63
:1023E0000E944B1B20E030E040E05FE30E94AA1B0C
:1023F0000E94FA1D7093A1036093A0036F2D70E0FB
:1024000090E080E00E944B1B29EF3FE049E450E45C
:102410000E94AA1B20E030E040E05AE30E94AA1B81
:1024200060939C0370939D0380939E0390939F03FE
:10243000CE0101967C018E01095F1F4F20E030E044
:10244000A901CA01B9010E9427058F819885A98534
:10245000BA858093FB029093FC02A093FD02B09397
:10246000FE0289819A81AB81BC818093F7029093AF
:10247000F802A093F902B093FA020AE029E048E0DA
:1024800067E087E094E00E94530206E025E043E025
:1024900062E082ED93E00E94530240E050E46CE180
:1024A00076E440930B0450930C0460930D047093F6
:1024B0000E0480E090E5A3ECB7E480930F049093C2
:1024C0001004A0931104B09312044093D6035093C8
:1024D000D7036093D8037093D9038093DA03909362
:1024E000DB03A093DC03B093DD038091CF038C303A
:1024F00008F050C08EE00E9423018091CF03282F66
:1025000030E0F901EE0FFF1FE20FF31FE655FC4F1D
:102510009081907C9E6090831092D0031092D103A2
:102520002CE0622F0E94DA1E829FB001112430E05D
:1025300020E0AB01420F531FFA01EE0FFF1FE40F23
:10254000F51FE655FC4F908196FD16C02F5F3F4F5B
:102550002C30310571F781110FC01092800082E09C
:10256000809381001092850010928400B19A80912E
:102570006F00826080936F00E091CF038E2F90E018
:10258000FC01EE0FFF1FE80FF91FE655FC4F80819D
:10259000806480830E941D026EEB71E0CE01019683
:1025A0000E94EC07CE0101960E948102CE010196A5
:1025B0000E9450088AE00E947A020E941D0267ED84
:1025C00071E0CE0101960E94EC07CE0101960E94B7
:1025D0008102CE0101960E9450088AE00E947A0290
:1025E00000E010E09091800330E8390F80917F0384
:1025F000981768F0981310C090937F030115110588
:1026000089F30E940000EECF0E94880B11CF38138F
:1026100003C030937F03F2CFE82FF0E0E150FD4F8D
:1026200020818F5F87FD80E02F3311F380937F033C
:102630002A3041F0E0908103F090820394E2E916A1
:10264000F104CCF01092820310928103E090A40375
:10265000F090A503E114F104C9F1F70181917F0124
:102660008823A1F1082E000C990B0E94CE20F701BF
:1026700031978083F2CF29831A82C090A803D0902B
:10268000A903AFEFCA1ADA0AB60184EA93E00E94FE
:102690007A07882399F02091A4033091A5038091B3
:1026A000A8039091A903BE016F5F7F4F820F931F14
:1026B0000E94EA20D092A903C092A803BFEFEB1AB0
:1026C000FB0AF0928203E09281038CCF6BE072E010
:1026D000CE0101960E94EC07CE0101960E94CF0226
:1026E0007C01CE0101960E945008F7FC76C160E2A1
:1026F00071E0CE0101960E94EC07CE0101960E9486
:102700008102CE0101960E9450086091060170E09E
:1027100090E080E00E94491B0E9458086EE072E041
:10272000CE0101960E94EC07CE0101960E94810223
:10273000CE0101960E94500865E271E0CE0101963B
:102740000E94EC07CE0101960E948102CE01019603
:102750000E9450086091090170E090E080E00E94C2
:10276000491B0E9458086AE272E0CE0101960E945D
:10277000EC07CE0101960E948102CE0101960E94D3
:1027800050086AE271E0CE0101960E94EC07CE018A
:1027900001960E948102CE0101960E94500860912C
:1027A000070170E090E080E00E94491B0E945808F9
:1027B00060E472E0CE0101960E94EC07CE01019622
:1027C0000E948102CE0101960E9450086DE371E0E3
:1027D000CE0101960E94EC07CE0101960E94810273
:1027E000CE0101960E9450086091080170E090E0CF
:1027F00080E00E94491B0E94580860E572E0CE010B
:1028000001960E94EC07CE0101960E948102CE0142
:1028100001960E94500860E571E0CE0101960E9489
:10282000EC07CE0101960E948102CE0101960E9422
:1028300050086091040170910501072E000C880B6F
:10284000990B0E944B1B0E94580862E672E0CE0171
:1028500001960E94EC07CE0101960E948102CE01F2
:1028600001960E94500863E671E0CE0101960E9435
:10287000EC07CE0101960E948102CE0101960E94D2
:10288000500860910C0170910D01072E000C880B0F
:10289000990B0E944B1B0E94580863E772E0CE011F
:1028A00001960E94EC07CE0101960E948102CE01A2
:1028B00001960E94500866E771E0CE0101960E94E1
:1028C000EC07CE0101960E948102CE0101960E9482
:1028D000500860910A0170910B01072E000C880BC3
:1028E000990B0E944B1B0E94580868E872E0CE01C9
:1028F00001960E94EC07CE0101960E948102CE0152
:1029000001960E94500869E871E0CE0101960E948C
:10291000EC07CE0101960E948102CE0101960E9431
:1029200050086091020170910301072E000C880B82
:10293000990B0E944B1B0E9458086EE972E0CE0171
:1029400001960E94EC07CE0101960E948102CE0101
:1029500001960E9450086CE971E0CE0101960E9438
:10296000EC07CE0101960E948102CE0101960E94E1
:1029700050086091000170910101072E000C880B36
:10298000990B0E944B1B0E9458086BEB72E0CE0122
:1029900001960E94EC07CE0101960E948102CE01B1
:1029A00001960E94500850E040E06AEB72E084EA31
:1029B00093E00E94B40769EE72E0CE0101960E9496
:1029C000EC07CE0101960E948102CE0101960E9481
:1029D00050088AE00E947A0211CE6CE072E0CE01CB
:1029E00001960E94EC07CE0101960E94CF027C0165
:1029F000CE0101960E945008F7FC03C00E94C80B4C
:102A0000D2CF87E40E94B20297FD07C24091A8038B
:102A10005091A903BC016F5F7F4FCE0101960E94C8
:102A2000FD07CE0101960E946F076B017C01CE016C
:102A300001960E945008F2E0CF16D104E104F1049F
:102A400009F4E5C194F4F7FCAECF88E50E94B20228
:102A50007C0189E50E94B202F7FC4AC0AFEFEA1A96
:102A6000FA0A97FD22C0AC012EC083E0C816D1043B
:102A7000E104F10409F4CFC160EE72E094E0C916FC
:102A8000D104E104F10409F08ECFCE0101960E9439
:102A9000EC07CE0101960E948102CE0101960E94B0
:102AA00050088AE00E947A027ECF8AE50E94B20234
:102AB00097FFD9CF83E50E94B2024091A8035091BD
:102AC000A90397FFD0CFB701CE0101960E94FD0761
:102AD000CE0101960E946407609390037093910366
:102AE0008093920390939303CE0101960E94500825
:102AF00089E50E94B2027C018AE50E94B202F7FCDD
:102B000025C0BFEFEB1AFB0A97FD02C0AC0109C05C
:102B100083E50E94B2024091A8035091A90397FF58
:102B2000F5CFB701CE0101960E94FD07CE010196B7
:102B30000E946407609394037093950380939603B7
:102B400090939703CE0101960E9450088AE50E9457
:102B5000B2027C0197FD21C083E50E94B202B70159
:102B60006F5F7F4FAC0197FF04C04091A803509165
:102B7000A903CE0101960E94FD07CE0101960E9495
:102B80006407609398037093990380939A039093DA
:102B90009B03CE0101960E94500868ED72E0CE01C1
:102BA00001960E94EC07CE0101960E948102CE019F
:102BB00001960E945008609190037091910380915A
:102BC0009203909193030E9458086AE171E0CE014C
:102BD00001960E94EC07CE0101960E948102CE016F
:102BE00001960E9450086091940370919503809122
:102BF0009603909197030E9458086EED72E0CE0103
:102C000001960E94EC07CE0101960E948102CE013E
:102C100001960E94500860919803709199038091E9
:102C20009A0390919B030E9458088AE00E947A02BE
:102C300020E030E0A90160919803709199038091A0
:102C40009A0390919B030E94881E9091830318160B
:102C50000CF076C080910701981729F080938303C8
:102C600090E00E9442018091840390918503A0919D
:102C70008603B09187038F87988BA98BBA8B80913D
:102C8000900390919103A0919203B09193038B874D
:102C90009C87AD87BE879C01AD016F857889898946
:102CA0009A890E941B1D2B013C0180918803909101
:102CB0008903A0918A03B0918B038B8B9C8BAD8B86
:102CC000BE8BC0909403D0909503E0909603F09053
:102CD0009703A7019601BC01CD010E941B1D4B016A
:102CE0005C01A3019201C301B2010E94AA1B2B0146
:102CF0003C01A5019401C501B4010E94AA1B9B01DE
:102D0000AC01C301B2010E941C1D0E94931E4B0125
:102D10005C0140909C0350909D0360909E037090D6
:102D20009F03A30192010E94441B181664F0A7019F
:102D300096016B857C858D859E850E94FA0533CE34
:102D40008091080189CFA3019201C501B4010E94BD
:102D5000881D0E94301E0E94FA1D6F8B788F898F0C
:102D60009A8F412C512C32018F89988DA98DBA8D63
:102D700084159505A605B705D4F2C301B2010E94DA
:102D80004B1B4B015C016F89788D898D9A8D0E9458
:102D90004B1B9B01AC01C501B4010E94881D4B0176
:102DA0005C012B893C894D895E89C701B6010E946F
:102DB0001B1DA50194010E94AA1B2B893C894D89EA
:102DC0005E890E941C1D6B8F7C8F8D8F9E8F2F853F
:102DD000388949895A896B857C858D859E850E94B5
:102DE0001B1DA50194010E94AA1B2F8538894989C2
:102DF0005A890E941C1D2B8D3C8D4D8D5E8D0E942D
:102E0000FA059FEF491A590A690A790AADCF81E09C
:102E10000E94E108C8CD80E0FBCF8DE40E94B202A1
:102E200097FDC1CD4091A8035091A903BC016F5FEC
:102E30007F4FCE0101960E94FD07CE0101960E94B0
:102E40006F076B017C01CE0101960E945008A3E040
:102E5000CA16D104E104F10451F0B4E0CB16D10458
:102E6000E104F10409F09FCD66EE72E00ECE63EE50
:102E700072E00BCE84EA93E00C945008EF920F932B
:102E80001F93CF93DF93E80134E047FD34E1042E34
:102E9000000C550B57FF03C0519541955109E32E86
:102EA000022F242FAE010E949C17CE01DF91CF91FB
:102EB0001F910F91EF900895662777270C94FB18C8
:102EC0001F93FC0199278827BC01E89411911032C7
:102ED000E9F3193010F01E30C8F31B3251F01D32E7
:102EE00049F4689406C00E948717610F711D811D07
:102EF000911D119110531A30B0F33EF490958095C6
:102F0000709561957F4F8F4F9F4F1F910895592F57
:102F1000482F372F262F660F771F881F991F660FA0
:102F2000771F881F991F620F731F841F951F660FDD
:102F3000771F881F991F0895A9E0B0E0E2EAF7E142
:102F40000C94B91C6A01F22EB02E102FFBE3AF2EA9
:102F5000A01608F41BE31F5F012F27E0AE014F5FAF
:102F60005F4F0E944B1ABC018981982F9970913054
:102F700009F43FC09BE2E1FC04C09E2D9170E0FC8F
:102F80003AC05E2D5071E82FE87083FF46C084E0A0
:102F9000911101C083E0EF2DE81B8F1508F0E0E0F0
:102FA000D6018E2F20E2552351F1992329F0D60125
:102FB0009C93C60101966C0196012D5F3F4FE2FE86
:102FC00024C08EE4D6018C9391E411969C931197C2
:102FD00012968C93D9018E2F90E281111BC0E20FC3
:102FE000F32FF11D10828EEF9FEF2996ECE00C94E9
:102FF000D51C9DE2C6CF90E2C4CF2D9381508111A4
:10300000FCCFCE0ED11CE0E0D0CF8EE6D6018C9363
:1030100091E6DBCF9D938150E0CF482F447082FF33
:103020003DC084E0911101C083E08F1510F4EF2DB5
:10303000E81BD6018E2F20E2552309F1992329F0B0
:10304000D6019C93C60101966C0196012D5F3F4FFE
:10305000E2FE1BC089E4D6018C938EE411968C931A
:10306000119786E412968C93D9018E2F90E28823D3
:1030700009F4B5CF9D938150FACF2D9381508111E2
:10308000FCCFCE0ED11CE0E0D9CF89E6D6018C93DF
:103090008EE611968C93119786E6E4CF9B0177FF1D
:1030A00002C030E020E0A1E0B0E0911102C0B0E049
:1030B000A0E0F9013196AE0FBF1F8B2C912CBB20E5
:1030C00009F461C05401EFEFAE1ABE0AAA0DBB1D90
:1030D000FA161B0619F014F04F2D4A1B511188C027
:1030E000E3FC59C07601A42FB0E2A1114FC0C40E79
:1030F000D11C992309F45BC040E0D6011196F6017A
:1031000090836D01552309F448C0012F060F9A8161
:10311000582F507184FF03C0913309F401501016E9
:103120000CF047C0093008F008E0EEE2FE2E5B012B
:10313000A01AB10885019194819491082F3F32071C
:1031400029F4D601FC92F60131966F0162177307DC
:1031500094F1021713077CF5DB01A21BB30BAA2421
:10316000A394B12CAC0EBD1EAA0DBB1D11968C9163
:1031700021503109D601119628153905F4F0F601D0
:1031800080836D01DBCFB12CA12CA0CFF701B193CF
:103190007F01A150AACF9111B0CFD601942F50E357
:1031A00002C05D9391509111FCCFC40ED11C40E040
:1031B000ACCF01E0BACF80E3DBCF6217730731F405
:1031C000963388F4953311F4552369F0F601808322
:1031D000FD01842F90E2811108C0A40FB11D1C9243
:1031E00090E080E002CF81E3F1CF91938150F3CF63
:1031F000911183CF8ACFB0E0A0E0E1E0F9E10C9437
:10320000B91C5C017B016115710519F0DB018D931F
:103210009C9385010F5F1F4FF501D0818D2F90E0AA
:103220000E94231B6C01892BB9F5DD32B9F50F5FC4
:103230001F4FD5011196DC91C1E05801F1E0AF1AA2
:10324000B10843E050E060E770E0C5010E942C1B2C
:10325000892B69F5680182E0C80ED11C45E050E079
:103260006BE670E0C6010E942C1B892B21F46801DB
:1032700097E0C90ED11CE114F10419F0D701CD92E9
:10328000DC9260E070E080E89FEFC111FFC060E079
:1032900070E080E89FE7FAC05801BBCFDB3229F429
:1032A00085010E5F1F4FF501D181C0E0C6CF43E01D
:1032B00050E068E670E0C5010E942C1B892BE9F004
:1032C000F80110E000E020E030E0A9015F01B0ED7E
:1032D0008B2E8D0E89E08815C8F19C2E689491F88C
:1032E0008C2F8870C2FF16C0811102C00F5F1F4F64
:1032F0003196D501DC91C92DE9CFE114F10429F013
:103300000E5F1F4FF7011183008360E070E080ECD7
:103310009FE7BCC0882311F001501109A5E0B0E07F
:103320000E94A01C9B01AC01220F331F441F551F9C
:10333000280D311D411D511D283999E939074907CB
:1033400099E15907A8F2C6609C2ED2CFAEEF8A123F
:1033500006C0C3FD3CC09C2E689493F8C9CFDF7DA6
:10336000D534A9F580818D3239F4C061DF01129620
:10337000818162E070E006C0DF018B32C1F31196FB
:1033800061E070E080535D01A61AB70A8A30F8F454
:10339000E0E8CE16ECE0DE065CF4B601660F771FBF
:1033A000660F771FC60ED71ECC0CDD1CC80ED11CB5
:1033B0005D01FFEFAF1ABF0A8C9180538A30A8F1EC
:1033C000C4FF03C0D194C194D1080C0D1D1DC1FFD1
:1033D00009C0E114F10431F081E0A81AB108D70165
:1033E000AD92BC92CA01B9010E94491BC370C3309F
:1033F00009F490584B015C0120E030E0A9010E94E3
:10340000441B882309F440C0CFE9D0E017FF05C072
:10341000119501951109C7E8D0E06E01B8E1CB1A0A
:10342000D10880E2E82EF12C0FC0D501B1CFFE010A
:1034300025913591459154910E191F09C501B4018B
:103440000E94AA1B4B015C01D501C4010E151F058A
:1034500074F72497F594E794CC16DD06A9F78A2F24
:10346000880F8B2F881F8F3F49F020E030E0A901A3
:10347000C501B4010E94441B811106C082E290E0A4
:1034800090933D0480933C04C501B401CDB7DEB7F1
:10349000ECE00C94D51C283008F027E03327DA0143
:1034A000990F311D87FD916000966105710539F412
:1034B00032602E5F3D9330E32A95E1F708959F3FF8
:1034C00030F080387105610509F03C5F3C5F3D9349
:1034D000913008F08068911DDF93CF931F930F9375
:1034E000FF92EF92192F987F9695E92F96959695D2
:1034F000E90FFF27E350FF4F99273327EE24FF24DE
:10350000A701E70105900894079428F4360FE71EF9
:10351000F81E491F511D660F771F881F991F0694BB
:10352000A1F70590079428F4E70EF81E491F561FCF
:10353000C11D770F881F991F661F0694A1F705907C
:10354000079428F4F80E491F561FC71FD11D880F76
:10355000991F661F771F0694A1F70590079420F422
:10356000490F561FC71FD81F990F661F771F881F47
:103570000694A9F784911095177041F0D695C795D8
:1035800057954795F794E7941A95C1F7E3EAF0E069
:1035900068941590159135916591959105907FE20C
:1035A0007395E118F10A430B560BC90BD009C0F70C
:1035B000E10CF11E431F561FC91FD01D7EF470334E
:1035C00011F48A95E6CFE894015030F0080F0AF420
:1035D0000027021708F4202F2395022F7A3328F0B2
:1035E00079E37D932A95E9F710C07D932A9589F6B2
:1035F000069497956795379517951794E118F10AF2
:10360000430B560BC90BD00998F023957E91739507
:103610007A3308F070E37C932013B8F77E917061E1
:103620007D9330F0839571E37D9370E32A95E1F704
:103630001124EF90FF900F911F91CF91DF91992767
:1036400087FD9095089591110C94171C803219F004
:1036500089508550C8F70895FB01DC014150504066
:1036600088F08D9181341CF08B350CF4805E65916F
:1036700061341CF06B350CF4605E861B611171F3D4
:10368000990B0895881BFCCF0E94861B08F481E0EB
:103690000895E89409C097FB3EF490958095709545
:1036A00061957F4F8F4F9F4F9923A9F0F92F96E98E
:1036B000BB279395F695879577956795B795F11103
:1036C000F8CFFAF4BB0F11F460FF1BC06F5F7F4FA0
:1036D0008F4F9F4F16C0882311F096E911C07723B2
:1036E00021F09EE8872F762F05C0662371F096E8BB
:1036F000862F70E060E02AF09A95660F771F881F8A
:10370000DAF7880F9695879597F90895990F00082D
:10371000550FAA0BE0E8FEEF16161706E807F907A3
:10372000C0F012161306E407F50798F0621B730B3E
:10373000840B950B39F40A2661F0232B242B252BBF
:1037400021F408950A2609F4A140A6958FEF811D62
:10375000811D08950E94BD1B0C94311C0E94231CE6
:1037600038F00E942A1C20F0952311F00C941A1CAA
:103770000C94201C11240C94651C0E94421C70F3B4
:10378000959FC1F3950F50E0551F629FF001729F06
:10379000BB27F00DB11D639FAA27F00DB11DAA1F15
:1037A000649F6627B00DA11D661F829F2227B00D62
:1037B000A11D621F739FB00DA11D621F839FA00DED
:1037C000611D221F749F3327A00D611D231F849F3D
:1037D000600D211D822F762F6A2F11249F57504094
:1037E0009AF0F1F088234AF0EE0FFF1FBB1F661F0F
:1037F000771F881F91505040A9F79E3F510580F0D8
:103800000C941A1C0C94651C5F3FE4F3983ED4F3AF
:10381000869577956795B795F795E7959F5FC1F77B
:10382000FE2B880F911D9695879597F908959927F6
:103830008827089597F99F6780E870E060E0089511
:103840009FEF80EC089500240A94161617061806B8
:103850000906089500240A94121613061406050694
:103860000895092E0394000C11F4882352F0BB0F25
:1038700040F4BF2B11F460FF04C06F5F7F4F8F4F88
:103880009F4F089557FD9058440F551F59F05F3FC3
:1038900071F04795880F97FB991F61F09F3F79F072
:1038A00087950895121613061406551FF2CF4695F4
:1038B000F1DF08C0161617061806991FF1CF869576
:1038C0007105610508940895E894BB27662777275A
:1038D000CB0197F90895F999FECF92BD81BDF89A71
:1038E000992780B50895262FF999FECF1FBA92BD6A
:1038F00081BD20BD0FB6F894FA9AF99A0FBE0196D1
:103900000895052E97FB1EF400940E94981C57FD05
:1039100007D00E94EA1C07FC03D04EF40C94981CBC
:1039200050954095309521953F4F4F4F5F4F0895EB
:1039300090958095709561957F4F8F4F9F4F08951B
:103940000E940C1DA59F900DB49F900DA49F800D0B
:10395000911D11240895B7FF0C94A01C0E94A01C77
:10396000821B930B08952F923F924F925F926F921A
:103970007F928F929F92AF92BF92CF92DF92EF92FF
:10398000FF920F931F93CF93DF93CDB7DEB7CA1B80
:10399000DB0B0FB6F894DEBF0FBECDBF09942A88AB
:1039A000398848885F846E847D848C849B84AA8453
:1039B000B984C884DF80EE80FD800C811B81AA81E0
:1039C000B981CE0FD11D0FB6F894DEBF0FBECDBFAB
:1039D000ED010895A1E21A2EAA1BBB1BFD010DC02B
:1039E000AA1FBB1FEE1FFF1FA217B307E407F507AF
:1039F00020F0A21BB30BE40BF50B661F771F881F8B
:103A0000991F1A9469F760957095809590959B0120
:103A1000AC01BD01CF010895A29FB001B39FC001C9
:103A2000A39F700D811D1124911DB29F700D811DEA
:103A30001124911D08955058BB27AA270E94331DB9
:103A40000C94311C0E94231C38F00E942A1C20F088
:103A500039F49F3F19F426F40C94201C0EF4E095E1
:103A6000E7FB0C941A1CE92F0E94421C58F3BA176A
:103A7000620773078407950720F079F4A6F50C9484
:103A8000641C0EF4E0950B2EBA2FA02D0B01B9018A
:103A900090010C01CA01A0011124FF27591B99F0C4
:103AA000593F50F4503E68F11A16F040A22F232FD0
:103AB000342F4427585FF3CF469537952795A79520
:103AC000F0405395C9F77EF41F16BA0B620B730BC7
:103AD000840BBAF09150A1F0FF0FBB1F661F771F38
:103AE000881FC2F70EC0BA0F621F731F841F48F4ED
:103AF000879577956795B795F7959E3F08F0B0CF76
:103B00009395880F08F09927EE0F9795879508955C
:103B10000E949C1D0C94311C0E942A1C58F00E948B
:103B2000231C40F029F45F3F29F00C941A1C51111A
:103B30000C94651C0C94201C0E94421C68F3992371
:103B4000B1F3552391F3951B550BBB27AA27621799
:103B50007307840738F09F5F5F4F220F331F441FA6
:103B6000AA1FA9F335D00E2E3AF0E0E832D09150DA
:103B70005040E695001CCAF72BD0FE2F29D0660FC7
:103B8000771F881FBB1F261737074807AB07B0E80A
:103B900009F0BB0B802DBF01FF2793585F4F3AF010
:103BA0009E3F510578F00C941A1C0C94651C5F3FE5
:103BB000E4F3983ED4F3869577956795B795F79596
:103BC0009F5FC9F7880F911D9695879597F908957E
:103BD000E1E0660F771F881FBB1F6217730784071A
:103BE000BA0720F0621B730B840BBA0BEE1F88F729
:103BF000E09508950E94011E6894B1110C94651C13
:103C000008950E944A1C88F09F5798F0B92F992771
:103C1000B751B0F0E1F0660F771F881F991F1AF0B7
:103C2000BA95C9F714C0B13091F00E94641CB1E09C
:103C300008950C94641C672F782F8827B85F39F09B
:103C4000B93FCCF3869577956795B395D9F73EF450
:103C500090958095709561957F4F8F4F9F4F0895F8
:103C60000E94701E90F09F3748F4911116F00C944A
:103C7000651C60E070E080E89FEB089526F41B1659
:103C8000611D711D811D0C94471E0C94621E8823BA
:103C900071F4772321F09850872B762F07C0662385
:103CA00011F499270DC09051862B70E060E02AF046
:103CB0009A95660F771F881FDAF7880F9695879574
:103CC00097F908959F3F31F0915020F487957795AB
:103CD0006795B795880F911D9695879597F90895E3
:103CE0000E944A1CA0F0BEE7B91788F4BB279F3892
:103CF00060F41616B11D672F782F8827985FF7CFCD
:103D0000869577956795B11D93959639C8F3089573
:103D10000E94861B08F48FEF089519F416F40C9492
:103D2000201C0C94621E0E944A1CB8F39923C9F30C
:103D3000B6F39F57550B87FF0E94D31E0024A0E6C1
:103D400040EA900180585695979528F4805C660F5C
:103D5000771F881F20F026173707480730F4621BAB
:103D6000730B840B202931294A2BA69517940794AD
:103D7000202531254A2758F7660F771F881F20F026
:103D800026173707480730F4620B730B840B200D9E
:103D9000311D411DA09581F7B901842F9158880FDD
:103DA00096958795089591505040660F771F881F0C
:103DB000D2F70895991B79E004C0991F961708F06F
:103DC000961B881F7A95C9F780950895EE0FFF1FFF
:103DD0000590F491E02D09940F931F93CF93DF93F7
:103DE0008230910510F482E090E0E0914004F0917F
:103DF000410430E020E0B0E0A0E0309799F42115D4
:103E0000310509F44AC0281B390B24303105D8F597
:103E10008A819B816115710589F1FB0193838283FE
:103E2000FE0111C040815181028113814817590759
:103E3000E0F04817590799F4109761F012960C9327
:103E4000129713961C933296CF01DF91CF911F9159
:103E50000F9108950093400410934104F4CF21156D
:103E6000310551F04217530738F0A901DB019A01DF
:103E7000BD01DF01F801C1CFEF01F9CF90934104FB
:103E800080934004CDCFFE01E20FF31F8193919305
:103E90002250310939832883D7CF20913E043091B5
:103EA0003F04232B41F420911001309111013093F4
:103EB0003F0420933E0420910E0130910F01211503
:103EC000310541F42DB73EB74091120150911301D5
:103ED000241B350BE0913E04F0913F04E217F307F9
:103EE000A0F42E1B3F0B2817390778F0AC014E5F6A
:103EF0005F4F2417350748F04E0F5F1F50933F0464
:103F000040933E04819391939FCFF0E0E0E09CCFFB
:103F1000CF93DF930097E9F0FC013297138212826E
:103F2000A0914004B0914104ED0130E020E01097F1
:103F3000A1F420813181820F931F20913E043091A2
:103F40003F042817390709F061C0F0933F04E0935C
:103F50003E04DF91CF910895EA01CE17DF07E8F51F
:103F60004A815B819E0141155105B1F7E901FB834F
:103F7000EA8349915991C40FD51FEC17FD0761F4ED
:103F8000808191810296840F951FE901998388832E
:103F9000828193819B838A83F0E0E0E012968D9189
:103FA0009C9113970097B9F52D913C911197CD01F4
:103FB0000296820F931F20913E0430913F042817F0
:103FC000390739F6309751F51092410410924004A8
:103FD000B0933F04A0933E04BCCFD383C2834081FF
:103FE0005181840F951FC817D90761F44E5F5F4F49
:103FF00088819981480F591F518340838A819B8111
:10400000938382832115310509F0B0CFF0934104E9
:10401000E09340049ECFFD01DC01C0CF13821282E9
:10402000D7CFB0E0A0E0E7E1F0E20C94B51C8C0142
:10403000009751F4CB010E94EC1E8C01C801CDB752
:10404000DEB7E0E10C94D11CFC01E60FF71F9C01E8
:1040500022503109E217F30708F49DC0D901CD9130
:10406000DC911197C617D70798F0C530D10530F30A
:10407000CE0104978617970708F3C61BD70B229724
:10408000C193D1936D937C93CF010E94881FD6CFAB
:104090005B01AC1ABD0A4C018C0E9D1EA091400420
:1040A000B0914104512C412CF12CE12C109731F5A9
:1040B00080913E0490913F048815990509F05CC0F9
:1040C0004616570608F058C080910E0190910F01D6
:1040D000009741F48DB79EB74091120150911301A2
:1040E000841B950BE817F90708F055C0F0933F04BF
:1040F000E0933E04F90171836083A0CF8D919C9180
:10410000119712966C90129713967C901397A8159E
:10411000B90559F56C0142E0C40ED11CCA14DB0488
:1041200020F1AC014A195B09DA011296159780F06B
:104130006282738251834083D9016D937C93E11431
:10414000F10471F0D7011396FC93EE93129776CF9A
:1041500022968C0F9D1FF90191838083F301EFCF8D
:10416000F0934104E093400469CF4816590608F4DF
:104170002C017D01D3019ACFCB010E94EC1E7C0162
:10418000009749F0AE01B8010E94D620C8010E94F4
:10419000881F870153CF10E000E050CF91110895A0
:1041A00081568A5108F4805285580895FB01DC013C
:1041B00002C001900D9241505040D8F70895FC0183
:1041C0008191861721F08823D9F79927089531978F
:1041D000CF010895FB01DC0101900D920020E1F771
:1041E0000895FB0151915523A9F0BF01DC014D91C8
:1041F00045174111E1F759F4CD010190002049F034
:104200004D9140154111C9F3FB014111EFCF81E000
:1042100090E00197089510E0C8EFD0E004C0FE01DF
:104220000E94E61E2196C93FD107C9F7F894FFCF37
:10423000FFFF01006400014655231801F40100004E
:1042400042048000473233205800590049004A0098
:104250002436303D002436313D002436323D0024E2
:10426000363220696E73206572726F7200243633A5
:104270003D0024363320696E73206572726F7200C0
:104280002436343D0024363420696E732065727202
:104290006F72002436353D0024363520696E732058
:1042A0006572726F72002436363D002436362069FE
:1042B0006E73206572726F72002436373D002436AB
:1042C0003720696E73206572726F72002436383D34
:1042D0000024363820696E73206572726F72002078
:1042E0004E4F206669727374206461746100477276
:1042F000626C20312E3168205B27242720666F7284
:104300002068656C705D003C49646C657C4D506F45
:10431000733A302E3030302C302E3030302C302E5E
:104320003030307C46533A302C307C4F763A313046
:10433000302C3130302C3130303E00242400092024
:1043400053746570706572206D6F746F7220646550
:104350006C617928CEBC73290A00092053706F6FF5
:104360006C206469616D65746572286D6D290A0041
:10437000092050656E20555020416E676C650A001B
:10438000092050656E20444F574E20416E676C6582
:104390000A00092050656E2044656C6179286E73AF
:1043A000290A000920582D61786973206C656E67B1
:1043B0007468286D6D290A000920592D6178697388
:1043C000206D696E696D756D286D6D290A00092073
:1043D0004C2D7374657070657220646972656374C6
:1043E000696F6E282D312F31290A000920522D7353
:1043F00074657070657220646972656374696F6E4C
:10440000282D312F31290A004730312058005A0019
:0C4410004734004D33004D35006F6B0049
:00000001FF
